21001400000001200001699        100000000009370022051200303000111304127002749700121      00176722051218569ESSO BIERG2305121090100
2200140000ES N  BIERGES   000000000000000000000000000EUR0623403                             000000000000000                  100
2300140000000000000000                         ESSO BIERGES N  BIERGES                             0000                      000
21001500000001200001700        100000000009300023051200303000111304127002750100151      00708123051213529Q8 E411 EG2305121090100
2200150000HEZEE EGHEZEE   000000000000000000000000000EUR0549302                             000000000000000                  100
2300150000000000000000                         Q8 E411 EGHEZEE EGHEZEE                             0000                      000