21004100000001200001667        0000000000035500200512001500000EBAY ACTARUS1674 ADRESSE DE LIVRAISON :              2105121070100
2200410000RUE JULES HENRARD, 24 4800 - VERVIERS                                             000000000000000                  100
2300410000001224151316 EUR                     KIES ROBERT               RUE JULES HENRARD 24      4800VERVIERS              000
21004200000001200001668        0000000000024570210512001500000R:5-81324716/040 VI 16630907 REM:9782003             2105121070100
2200420000BRT:0000024,99EUR C:00000,42                    16/05                             000000000000000                  000
21004300000001200001669        0000000000014710210512001500000R:5-81324716/045 VI 16630899 REM:9782210             2105121070100
2200430000BRT:0000014,99EUR C:00000,28                    19/05                             000000000000000                  000
21004400000001200001670        000000000000678021051200368000111112082210660660001105120000021805128SMARTOYS       2105121070100
2200440000 WAVRE                                                                            000000000000000                  000
21004500000001200001671        1000000004483940210512005010000                                                     2105121070100
2200450000                                                     000001982/000000133          000000000000000                  100
2300450000210000008136 EUR                     PARTENA                                             RUE 1000 BRUXELLES        000
21004600000001200001672        1000000000693000210512005010001107038757659702210512LUMINUS ACOMPTE 4123283488    002105121070100
22004600000471811661                                                                        000000000000000                  100
2300460000335055459895 EUR                     EDF LUMINUS                                         0000                      000
21004700000001200001673        100000000009565021051200303000111304140089272600031      00344521051208139Q8 GLIMES 2105121070100
2200470000      1315      000000000000000000000000000EUR0658303                             000000000000000                  100
2300470000000000000000                         Q8 GLIMES       1315                                0000                      000
21004800000001200001674        1000000000069430210512005010001107048968437551210512F. 2012114432 DOMICIL.        002105121070100
22004800000455530509                                                                        000000000000000                  100
2300480000210069204094 EUR                     ISABEL NV/SA                                        0000                      000
21004900000001200001675        100000000005005020051200303000111304127002699200021      00552520051214409LUKOIL TRI2105121070100
2200490000OMPHE AUDERGHEM 000000000000000000000000000EUR0318201                             000000000000000                  100
2300490000000000000000                         LUKOIL TRIOMPHE AUDERGHEM                           0000                      000
8107001349221395 EUR0BE                  0000000094314960210512
9               001388000000005392070000000076590830
